{
  "_format": "hh-sol-artifact-1",
  "contractName": "EasyBet",
  "sourceName": "contracts/EasyBet.sol",
  "abi": [
    {
      "inputs": [],
      "stateMutability": "nonpayable",
      "type": "constructor"
    },
    {
      "inputs": [
        {
          "internalType": "address",
          "name": "sender",
          "type": "address"
        },
        {
          "internalType": "uint256",
          "name": "tokenId",
          "type": "uint256"
        },
        {
          "internalType": "address",
          "name": "owner",
          "type": "address"
        }
      ],
      "name": "ERC721IncorrectOwner",
      "type": "error"
    },
    {
      "inputs": [
        {
          "internalType": "address",
          "name": "operator",
          "type": "address"
        },
        {
          "internalType": "uint256",
          "name": "tokenId",
          "type": "uint256"
        }
      ],
      "name": "ERC721InsufficientApproval",
      "type": "error"
    },
    {
      "inputs": [
        {
          "internalType": "address",
          "name": "approver",
          "type": "address"
        }
      ],
      "name": "ERC721InvalidApprover",
      "type": "error"
    },
    {
      "inputs": [
        {
          "internalType": "address",
          "name": "operator",
          "type": "address"
        }
      ],
      "name": "ERC721InvalidOperator",
      "type": "error"
    },
    {
      "inputs": [
        {
          "internalType": "address",
          "name": "owner",
          "type": "address"
        }
      ],
      "name": "ERC721InvalidOwner",
      "type": "error"
    },
    {
      "inputs": [
        {
          "internalType": "address",
          "name": "receiver",
          "type": "address"
        }
      ],
      "name": "ERC721InvalidReceiver",
      "type": "error"
    },
    {
      "inputs": [
        {
          "internalType": "address",
          "name": "sender",
          "type": "address"
        }
      ],
      "name": "ERC721InvalidSender",
      "type": "error"
    },
    {
      "inputs": [
        {
          "internalType": "uint256",
          "name": "tokenId",
          "type": "uint256"
        }
      ],
      "name": "ERC721NonexistentToken",
      "type": "error"
    },
    {
      "inputs": [
        {
          "internalType": "address",
          "name": "owner",
          "type": "address"
        }
      ],
      "name": "OwnableInvalidOwner",
      "type": "error"
    },
    {
      "inputs": [
        {
          "internalType": "address",
          "name": "account",
          "type": "address"
        }
      ],
      "name": "OwnableUnauthorizedAccount",
      "type": "error"
    },
    {
      "inputs": [],
      "name": "ReentrancyGuardReentrantCall",
      "type": "error"
    },
    {
      "anonymous": false,
      "inputs": [
        {
          "indexed": true,
          "internalType": "address",
          "name": "owner",
          "type": "address"
        },
        {
          "indexed": true,
          "internalType": "address",
          "name": "approved",
          "type": "address"
        },
        {
          "indexed": true,
          "internalType": "uint256",
          "name": "tokenId",
          "type": "uint256"
        }
      ],
      "name": "Approval",
      "type": "event"
    },
    {
      "anonymous": false,
      "inputs": [
        {
          "indexed": true,
          "internalType": "address",
          "name": "owner",
          "type": "address"
        },
        {
          "indexed": true,
          "internalType": "address",
          "name": "operator",
          "type": "address"
        },
        {
          "indexed": false,
          "internalType": "bool",
          "name": "approved",
          "type": "bool"
        }
      ],
      "name": "ApprovalForAll",
      "type": "event"
    },
    {
      "anonymous": false,
      "inputs": [
        {
          "indexed": true,
          "internalType": "uint256",
          "name": "ticketId",
          "type": "uint256"
        },
        {
          "indexed": true,
          "internalType": "address",
          "name": "seller",
          "type": "address"
        }
      ],
      "name": "ListingCancelled",
      "type": "event"
    },
    {
      "anonymous": false,
      "inputs": [
        {
          "indexed": true,
          "internalType": "uint256",
          "name": "lotteryId",
          "type": "uint256"
        },
        {
          "indexed": false,
          "internalType": "uint256",
          "name": "ticketPrice",
          "type": "uint256"
        },
        {
          "indexed": false,
          "internalType": "uint256",
          "name": "maxTickets",
          "type": "uint256"
        },
        {
          "indexed": false,
          "internalType": "string",
          "name": "description",
          "type": "string"
        }
      ],
      "name": "LotteryCreated",
      "type": "event"
    },
    {
      "anonymous": false,
      "inputs": [
        {
          "indexed": true,
          "internalType": "uint256",
          "name": "lotteryId",
          "type": "uint256"
        },
        {
          "indexed": false,
          "internalType": "uint256",
          "name": "winningNumber",
          "type": "uint256"
        },
        {
          "indexed": false,
          "internalType": "uint256[]",
          "name": "winningTickets",
          "type": "uint256[]"
        }
      ],
      "name": "LotterySettled",
      "type": "event"
    },
    {
      "anonymous": false,
      "inputs": [
        {
          "indexed": true,
          "internalType": "address",
          "name": "previousOwner",
          "type": "address"
        },
        {
          "indexed": true,
          "internalType": "address",
          "name": "newOwner",
          "type": "address"
        }
      ],
      "name": "OwnershipTransferred",
      "type": "event"
    },
    {
      "anonymous": false,
      "inputs": [
        {
          "indexed": true,
          "internalType": "uint256",
          "name": "ticketId",
          "type": "uint256"
        },
        {
          "indexed": true,
          "internalType": "address",
          "name": "winner",
          "type": "address"
        },
        {
          "indexed": false,
          "internalType": "uint256",
          "name": "amount",
          "type": "uint256"
        }
      ],
      "name": "PrizeClaimed",
      "type": "event"
    },
    {
      "anonymous": false,
      "inputs": [
        {
          "indexed": true,
          "internalType": "uint256",
          "name": "ticketId",
          "type": "uint256"
        },
        {
          "indexed": true,
          "internalType": "address",
          "name": "buyer",
          "type": "address"
        },
        {
          "indexed": true,
          "internalType": "address",
          "name": "seller",
          "type": "address"
        },
        {
          "indexed": false,
          "internalType": "uint256",
          "name": "price",
          "type": "uint256"
        }
      ],
      "name": "TicketBought",
      "type": "event"
    },
    {
      "anonymous": false,
      "inputs": [
        {
          "indexed": true,
          "internalType": "uint256",
          "name": "ticketId",
          "type": "uint256"
        },
        {
          "indexed": true,
          "internalType": "address",
          "name": "seller",
          "type": "address"
        },
        {
          "indexed": false,
          "internalType": "uint256",
          "name": "price",
          "type": "uint256"
        }
      ],
      "name": "TicketListed",
      "type": "event"
    },
    {
      "anonymous": false,
      "inputs": [
        {
          "indexed": true,
          "internalType": "uint256",
          "name": "lotteryId",
          "type": "uint256"
        },
        {
          "indexed": true,
          "internalType": "uint256",
          "name": "ticketId",
          "type": "uint256"
        },
        {
          "indexed": true,
          "internalType": "address",
          "name": "buyer",
          "type": "address"
        },
        {
          "indexed": false,
          "internalType": "uint256",
          "name": "number",
          "type": "uint256"
        }
      ],
      "name": "TicketPurchased",
      "type": "event"
    },
    {
      "anonymous": false,
      "inputs": [
        {
          "indexed": true,
          "internalType": "uint256",
          "name": "ticketId",
          "type": "uint256"
        },
        {
          "indexed": true,
          "internalType": "address",
          "name": "from",
          "type": "address"
        },
        {
          "indexed": true,
          "internalType": "address",
          "name": "to",
          "type": "address"
        },
        {
          "indexed": false,
          "internalType": "uint256",
          "name": "price",
          "type": "uint256"
        }
      ],
      "name": "TicketTraded",
      "type": "event"
    },
    {
      "anonymous": false,
      "inputs": [
        {
          "indexed": true,
          "internalType": "address",
          "name": "from",
          "type": "address"
        },
        {
          "indexed": true,
          "internalType": "address",
          "name": "to",
          "type": "address"
        },
        {
          "indexed": true,
          "internalType": "uint256",
          "name": "tokenId",
          "type": "uint256"
        }
      ],
      "name": "Transfer",
      "type": "event"
    },
    {
      "inputs": [
        {
          "internalType": "uint256",
          "name": "",
          "type": "uint256"
        }
      ],
      "name": "activeListings",
      "outputs": [
        {
          "internalType": "uint256",
          "name": "",
          "type": "uint256"
        }
      ],
      "stateMutability": "view",
      "type": "function"
    },
    {
      "inputs": [
        {
          "internalType": "address",
          "name": "to",
          "type": "address"
        },
        {
          "internalType": "uint256",
          "name": "tokenId",
          "type": "uint256"
        }
      ],
      "name": "approve",
      "outputs": [],
      "stateMutability": "nonpayable",
      "type": "function"
    },
    {
      "inputs": [
        {
          "internalType": "address",
          "name": "owner",
          "type": "address"
        }
      ],
      "name": "balanceOf",
      "outputs": [
        {
          "internalType": "uint256",
          "name": "",
          "type": "uint256"
        }
      ],
      "stateMutability": "view",
      "type": "function"
    },
    {
      "inputs": [
        {
          "internalType": "uint256",
          "name": "_ticketId",
          "type": "uint256"
        }
      ],
      "name": "buyListedTicket",
      "outputs": [],
      "stateMutability": "payable",
      "type": "function"
    },
    {
      "inputs": [
        {
          "internalType": "uint256",
          "name": "_lotteryId",
          "type": "uint256"
        },
        {
          "internalType": "uint256",
          "name": "_number",
          "type": "uint256"
        }
      ],
      "name": "buyTicket",
      "outputs": [],
      "stateMutability": "payable",
      "type": "function"
    },
    {
      "inputs": [
        {
          "internalType": "uint256",
          "name": "_ticketId",
          "type": "uint256"
        }
      ],
      "name": "cancelListing",
      "outputs": [],
      "stateMutability": "nonpayable",
      "type": "function"
    },
    {
      "inputs": [
        {
          "internalType": "uint256",
          "name": "_ticketId",
          "type": "uint256"
        }
      ],
      "name": "claimPrize",
      "outputs": [],
      "stateMutability": "nonpayable",
      "type": "function"
    },
    {
      "inputs": [
        {
          "internalType": "uint256",
          "name": "_ticketPrice",
          "type": "uint256"
        },
        {
          "internalType": "uint256",
          "name": "_maxTickets",
          "type": "uint256"
        },
        {
          "internalType": "uint256",
          "name": "_duration",
          "type": "uint256"
        },
        {
          "internalType": "string",
          "name": "_description",
          "type": "string"
        }
      ],
      "name": "createLottery",
      "outputs": [],
      "stateMutability": "nonpayable",
      "type": "function"
    },
    {
      "inputs": [],
      "name": "emergencyWithdraw",
      "outputs": [],
      "stateMutability": "nonpayable",
      "type": "function"
    },
    {
      "inputs": [
        {
          "internalType": "uint256",
          "name": "_lotteryId",
          "type": "uint256"
        }
      ],
      "name": "endSales",
      "outputs": [],
      "stateMutability": "nonpayable",
      "type": "function"
    },
    {
      "inputs": [],
      "name": "getActiveListings",
      "outputs": [
        {
          "internalType": "uint256[]",
          "name": "",
          "type": "uint256[]"
        }
      ],
      "stateMutability": "view",
      "type": "function"
    },
    {
      "inputs": [
        {
          "internalType": "uint256",
          "name": "tokenId",
          "type": "uint256"
        }
      ],
      "name": "getApproved",
      "outputs": [
        {
          "internalType": "address",
          "name": "",
          "type": "address"
        }
      ],
      "stateMutability": "view",
      "type": "function"
    },
    {
      "inputs": [],
      "name": "getContractBalance",
      "outputs": [
        {
          "internalType": "uint256",
          "name": "",
          "type": "uint256"
        }
      ],
      "stateMutability": "view",
      "type": "function"
    },
    {
      "inputs": [
        {
          "internalType": "uint256",
          "name": "_ticketId",
          "type": "uint256"
        }
      ],
      "name": "getListing",
      "outputs": [
        {
          "components": [
            {
              "internalType": "uint256",
              "name": "ticketId",
              "type": "uint256"
            },
            {
              "internalType": "address",
              "name": "seller",
              "type": "address"
            },
            {
              "internalType": "uint256",
              "name": "price",
              "type": "uint256"
            },
            {
              "internalType": "uint256",
              "name": "listingTime",
              "type": "uint256"
            },
            {
              "internalType": "bool",
              "name": "isActive",
              "type": "bool"
            }
          ],
          "internalType": "struct EasyBet.Listing",
          "name": "",
          "type": "tuple"
        }
      ],
      "stateMutability": "view",
      "type": "function"
    },
    {
      "inputs": [
        {
          "internalType": "uint256",
          "name": "_lotteryId",
          "type": "uint256"
        }
      ],
      "name": "getLottery",
      "outputs": [
        {
          "components": [
            {
              "internalType": "uint256",
              "name": "lotteryId",
              "type": "uint256"
            },
            {
              "internalType": "uint256",
              "name": "ticketPrice",
              "type": "uint256"
            },
            {
              "internalType": "uint256",
              "name": "maxTickets",
              "type": "uint256"
            },
            {
              "internalType": "uint256",
              "name": "soldTickets",
              "type": "uint256"
            },
            {
              "internalType": "uint256",
              "name": "totalPrizePool",
              "type": "uint256"
            },
            {
              "internalType": "uint256",
              "name": "winningNumber",
              "type": "uint256"
            },
            {
              "internalType": "uint256[]",
              "name": "winningTickets",
              "type": "uint256[]"
            },
            {
              "internalType": "enum EasyBet.LotteryState",
              "name": "state",
              "type": "uint8"
            },
            {
              "internalType": "uint256",
              "name": "startTime",
              "type": "uint256"
            },
            {
              "internalType": "uint256",
              "name": "endTime",
              "type": "uint256"
            },
            {
              "internalType": "uint256",
              "name": "settleTime",
              "type": "uint256"
            },
            {
              "internalType": "string",
              "name": "description",
              "type": "string"
            }
          ],
          "internalType": "struct EasyBet.Lottery",
          "name": "",
          "type": "tuple"
        }
      ],
      "stateMutability": "view",
      "type": "function"
    },
    {
      "inputs": [
        {
          "internalType": "uint256",
          "name": "_lotteryId",
          "type": "uint256"
        }
      ],
      "name": "getLotteryTickets",
      "outputs": [
        {
          "internalType": "uint256[]",
          "name": "",
          "type": "uint256[]"
        }
      ],
      "stateMutability": "view",
      "type": "function"
    },
    {
      "inputs": [
        {
          "internalType": "uint256",
          "name": "_ticketId",
          "type": "uint256"
        }
      ],
      "name": "getTicket",
      "outputs": [
        {
          "components": [
            {
              "internalType": "uint256",
              "name": "ticketId",
              "type": "uint256"
            },
            {
              "internalType": "uint256",
              "name": "lotteryId",
              "type": "uint256"
            },
            {
              "internalType": "uint256",
              "name": "number",
              "type": "uint256"
            },
            {
              "internalType": "address",
              "name": "owner",
              "type": "address"
            },
            {
              "internalType": "uint256",
              "name": "purchasePrice",
              "type": "uint256"
            },
            {
              "internalType": "uint256",
              "name": "purchaseTime",
              "type": "uint256"
            },
            {
              "internalType": "bool",
              "name": "isWinning",
              "type": "bool"
            }
          ],
          "internalType": "struct EasyBet.Ticket",
          "name": "",
          "type": "tuple"
        }
      ],
      "stateMutability": "view",
      "type": "function"
    },
    {
      "inputs": [
        {
          "internalType": "address",
          "name": "_user",
          "type": "address"
        }
      ],
      "name": "getUserTickets",
      "outputs": [
        {
          "internalType": "uint256[]",
          "name": "",
          "type": "uint256[]"
        }
      ],
      "stateMutability": "view",
      "type": "function"
    },
    {
      "inputs": [
        {
          "internalType": "uint256",
          "name": "_lotteryId",
          "type": "uint256"
        }
      ],
      "name": "getWinningTickets",
      "outputs": [
        {
          "internalType": "uint256[]",
          "name": "",
          "type": "uint256[]"
        }
      ],
      "stateMutability": "view",
      "type": "function"
    },
    {
      "inputs": [
        {
          "internalType": "address",
          "name": "owner",
          "type": "address"
        },
        {
          "internalType": "address",
          "name": "operator",
          "type": "address"
        }
      ],
      "name": "isApprovedForAll",
      "outputs": [
        {
          "internalType": "bool",
          "name": "",
          "type": "bool"
        }
      ],
      "stateMutability": "view",
      "type": "function"
    },
    {
      "inputs": [
        {
          "internalType": "uint256",
          "name": "_ticketId",
          "type": "uint256"
        },
        {
          "internalType": "uint256",
          "name": "_price",
          "type": "uint256"
        }
      ],
      "name": "listTicket",
      "outputs": [],
      "stateMutability": "nonpayable",
      "type": "function"
    },
    {
      "inputs": [
        {
          "internalType": "uint256",
          "name": "",
          "type": "uint256"
        }
      ],
      "name": "listings",
      "outputs": [
        {
          "internalType": "uint256",
          "name": "ticketId",
          "type": "uint256"
        },
        {
          "internalType": "address",
          "name": "seller",
          "type": "address"
        },
        {
          "internalType": "uint256",
          "name": "price",
          "type": "uint256"
        },
        {
          "internalType": "uint256",
          "name": "listingTime",
          "type": "uint256"
        },
        {
          "internalType": "bool",
          "name": "isActive",
          "type": "bool"
        }
      ],
      "stateMutability": "view",
      "type": "function"
    },
    {
      "inputs": [
        {
          "internalType": "uint256",
          "name": "",
          "type": "uint256"
        }
      ],
      "name": "lotteries",
      "outputs": [
        {
          "internalType": "uint256",
          "name": "lotteryId",
          "type": "uint256"
        },
        {
          "internalType": "uint256",
          "name": "ticketPrice",
          "type": "uint256"
        },
        {
          "internalType": "uint256",
          "name": "maxTickets",
          "type": "uint256"
        },
        {
          "internalType": "uint256",
          "name": "soldTickets",
          "type": "uint256"
        },
        {
          "internalType": "uint256",
          "name": "totalPrizePool",
          "type": "uint256"
        },
        {
          "internalType": "uint256",
          "name": "winningNumber",
          "type": "uint256"
        },
        {
          "internalType": "enum EasyBet.LotteryState",
          "name": "state",
          "type": "uint8"
        },
        {
          "internalType": "uint256",
          "name": "startTime",
          "type": "uint256"
        },
        {
          "internalType": "uint256",
          "name": "endTime",
          "type": "uint256"
        },
        {
          "internalType": "uint256",
          "name": "settleTime",
          "type": "uint256"
        },
        {
          "internalType": "string",
          "name": "description",
          "type": "string"
        }
      ],
      "stateMutability": "view",
      "type": "function"
    },
    {
      "inputs": [
        {
          "internalType": "uint256",
          "name": "",
          "type": "uint256"
        },
        {
          "internalType": "uint256",
          "name": "",
          "type": "uint256"
        }
      ],
      "name": "lotteryNumbers",
      "outputs": [
        {
          "internalType": "bool",
          "name": "",
          "type": "bool"
        }
      ],
      "stateMutability": "view",
      "type": "function"
    },
    {
      "inputs": [
        {
          "internalType": "uint256",
          "name": "",
          "type": "uint256"
        },
        {
          "internalType": "uint256",
          "name": "",
          "type": "uint256"
        }
      ],
      "name": "lotteryTickets",
      "outputs": [
        {
          "internalType": "uint256",
          "name": "",
          "type": "uint256"
        }
      ],
      "stateMutability": "view",
      "type": "function"
    },
    {
      "inputs": [],
      "name": "name",
      "outputs": [
        {
          "internalType": "string",
          "name": "",
          "type": "string"
        }
      ],
      "stateMutability": "view",
      "type": "function"
    },
    {
      "inputs": [],
      "name": "nextLotteryId",
      "outputs": [
        {
          "internalType": "uint256",
          "name": "",
          "type": "uint256"
        }
      ],
      "stateMutability": "view",
      "type": "function"
    },
    {
      "inputs": [],
      "name": "nextTicketId",
      "outputs": [
        {
          "internalType": "uint256",
          "name": "",
          "type": "uint256"
        }
      ],
      "stateMutability": "view",
      "type": "function"
    },
    {
      "inputs": [],
      "name": "owner",
      "outputs": [
        {
          "internalType": "address",
          "name": "",
          "type": "address"
        }
      ],
      "stateMutability": "view",
      "type": "function"
    },
    {
      "inputs": [
        {
          "internalType": "uint256",
          "name": "tokenId",
          "type": "uint256"
        }
      ],
      "name": "ownerOf",
      "outputs": [
        {
          "internalType": "address",
          "name": "",
          "type": "address"
        }
      ],
      "stateMutability": "view",
      "type": "function"
    },
    {
      "inputs": [],
      "name": "renounceOwnership",
      "outputs": [],
      "stateMutability": "nonpayable",
      "type": "function"
    },
    {
      "inputs": [
        {
          "internalType": "address",
          "name": "from",
          "type": "address"
        },
        {
          "internalType": "address",
          "name": "to",
          "type": "address"
        },
        {
          "internalType": "uint256",
          "name": "tokenId",
          "type": "uint256"
        }
      ],
      "name": "safeTransferFrom",
      "outputs": [],
      "stateMutability": "nonpayable",
      "type": "function"
    },
    {
      "inputs": [
        {
          "internalType": "address",
          "name": "from",
          "type": "address"
        },
        {
          "internalType": "address",
          "name": "to",
          "type": "address"
        },
        {
          "internalType": "uint256",
          "name": "tokenId",
          "type": "uint256"
        },
        {
          "internalType": "bytes",
          "name": "data",
          "type": "bytes"
        }
      ],
      "name": "safeTransferFrom",
      "outputs": [],
      "stateMutability": "nonpayable",
      "type": "function"
    },
    {
      "inputs": [
        {
          "internalType": "address",
          "name": "operator",
          "type": "address"
        },
        {
          "internalType": "bool",
          "name": "approved",
          "type": "bool"
        }
      ],
      "name": "setApprovalForAll",
      "outputs": [],
      "stateMutability": "nonpayable",
      "type": "function"
    },
    {
      "inputs": [
        {
          "internalType": "uint256",
          "name": "_lotteryId",
          "type": "uint256"
        },
        {
          "internalType": "uint256",
          "name": "_winningNumber",
          "type": "uint256"
        }
      ],
      "name": "settleLottery",
      "outputs": [],
      "stateMutability": "nonpayable",
      "type": "function"
    },
    {
      "inputs": [
        {
          "internalType": "bytes4",
          "name": "interfaceId",
          "type": "bytes4"
        }
      ],
      "name": "supportsInterface",
      "outputs": [
        {
          "internalType": "bool",
          "name": "",
          "type": "bool"
        }
      ],
      "stateMutability": "view",
      "type": "function"
    },
    {
      "inputs": [],
      "name": "symbol",
      "outputs": [
        {
          "internalType": "string",
          "name": "",
          "type": "string"
        }
      ],
      "stateMutability": "view",
      "type": "function"
    },
    {
      "inputs": [
        {
          "internalType": "uint256",
          "name": "",
          "type": "uint256"
        }
      ],
      "name": "tickets",
      "outputs": [
        {
          "internalType": "uint256",
          "name": "ticketId",
          "type": "uint256"
        },
        {
          "internalType": "uint256",
          "name": "lotteryId",
          "type": "uint256"
        },
        {
          "internalType": "uint256",
          "name": "number",
          "type": "uint256"
        },
        {
          "internalType": "address",
          "name": "owner",
          "type": "address"
        },
        {
          "internalType": "uint256",
          "name": "purchasePrice",
          "type": "uint256"
        },
        {
          "internalType": "uint256",
          "name": "purchaseTime",
          "type": "uint256"
        },
        {
          "internalType": "bool",
          "name": "isWinning",
          "type": "bool"
        }
      ],
      "stateMutability": "view",
      "type": "function"
    },
    {
      "inputs": [
        {
          "internalType": "uint256",
          "name": "tokenId",
          "type": "uint256"
        }
      ],
      "name": "tokenURI",
      "outputs": [
        {
          "internalType": "string",
          "name": "",
          "type": "string"
        }
      ],
      "stateMutability": "view",
      "type": "function"
    },
    {
      "inputs": [
        {
          "internalType": "uint256",
          "name": "_ticketId",
          "type": "uint256"
        },
        {
          "internalType": "address",
          "name": "_to",
          "type": "address"
        },
        {
          "internalType": "uint256",
          "name": "_price",
          "type": "uint256"
        }
      ],
      "name": "tradeTicket",
      "outputs": [],
      "stateMutability": "payable",
      "type": "function"
    },
    {
      "inputs": [
        {
          "internalType": "address",
          "name": "from",
          "type": "address"
        },
        {
          "internalType": "address",
          "name": "to",
          "type": "address"
        },
        {
          "internalType": "uint256",
          "name": "tokenId",
          "type": "uint256"
        }
      ],
      "name": "transferFrom",
      "outputs": [],
      "stateMutability": "nonpayable",
      "type": "function"
    },
    {
      "inputs": [
        {
          "internalType": "address",
          "name": "newOwner",
          "type": "address"
        }
      ],
      "name": "transferOwnership",
      "outputs": [],
      "stateMutability": "nonpayable",
      "type": "function"
    },
    {
      "inputs": [
        {
          "internalType": "address",
          "name": "",
          "type": "address"
        },
        {
          "internalType": "uint256",
          "name": "",
          "type": "uint256"
        }
      ],
      "name": "userTickets",
      "outputs": [
        {
          "internalType": "uint256",
          "name": "",
          "type": "uint256"
        }
      ],
      "stateMutability": "view",
      "type": "function"
    }
  ],
  "bytecode": "0x6080604052600160085560016009553480156200001b57600080fd5b50336040518060400160405280600e81526020016d11585cde50995d08151a58dad95d60921b8152506040518060400160405280600381526020016211509560ea1b8152508160009081620000719190620001c0565b506001620000808282620001c0565b5050506001600160a01b038116620000b257604051631e4fbdf760e01b81526000600482015260240160405180910390fd5b620000bd81620000c9565b5060016007556200028c565b600680546001600160a01b038381166001600160a01b0319831681179093556040519116919082907f8be0079c531659141344cd1fd0a4f28419497f9722a3daafe3b4186f6b6457e090600090a35050565b634e487b7160e01b600052604160045260246000fd5b600181811c908216806200014657607f821691505b6020821081036200016757634e487b7160e01b600052602260045260246000fd5b50919050565b601f821115620001bb57600081815260208120601f850160051c81016020861015620001965750805b601f850160051c820191505b81811015620001b757828155600101620001a2565b5050505b505050565b81516001600160401b03811115620001dc57620001dc6200011b565b620001f481620001ed845462000131565b846200016d565b602080601f8311600181146200022c5760008415620002135750858301515b600019600386901b1c1916600185901b178555620001b7565b600085815260208120601f198616915b828110156200025d578886015182559484019460019091019084016200023c565b50858210156200027c5787850151600019600388901b60f8161c191681555b5050505050600190811b01905550565b613ae9806200029c6000396000f3fe60806040526004361061025c5760003560e01c80636f9fb98a11610144578063b88d4fde116100b6578063d70981541161007a578063d709815414610849578063db2e21bc14610869578063de74e57b1461087e578063e985e9c514610907578063ed37294514610927578063f2fde38b1461094757600080fd5b8063b88d4fde146107b6578063c87b56dd146107d6578063cb4b3f7f146107f6578063cf260baf14610809578063cfc4d6e21461082957600080fd5b806387c35bc01161010857806387c35bc0146107015780638da5cb5b1461071657806392e845f61461073457806395d89b41146107615780639c1aa90614610776578063a22cb4651461079657600080fd5b80636f9fb98a1461062757806370a082311461063a578063715018a61461065a5780637dc379fa1461066f5780638009df68146106eb57600080fd5b8063305a905a116101dd57806349c0de88116101a157806349c0de88146104ec578063502488531461051a57806350b447121461052d5780636031a52f146105d157806361cf4863146105e75780636352211e1461060757600080fd5b8063305a905a1461043157806337dc5e68146104515780633a95b0f71461047157806342842e0e146104ac57806342c3de0f146104cc57600080fd5b8063107a274a11610224578063107a274a1461033f5780631398e076146103a757806323b872dd146103de578063298ec208146103fe578063305a67a81461041157600080fd5b806301ffc9a7146102615780630484a22f1461029657806306fdde03146102c3578063081812fc146102e5578063095ea7b31461031d575b600080fd5b34801561026d57600080fd5b5061028161027c3660046131f2565b610967565b60405190151581526020015b60405180910390f35b3480156102a257600080fd5b506102b66102b136600461322b565b6109b9565b60405161028d9190613246565b3480156102cf57600080fd5b506102d8610a25565b60405161028d91906132da565b3480156102f157600080fd5b506103056103003660046132ed565b610ab7565b6040516001600160a01b03909116815260200161028d565b34801561032957600080fd5b5061033d610338366004613306565b610ae0565b005b34801561034b57600080fd5b5061035f61035a3660046132ed565b610aef565b60405161028d9190815181526020808301516001600160a01b031690820152604080830151908201526060808301519082015260809182015115159181019190915260a00190565b3480156103b357600080fd5b506103c76103c23660046132ed565b610bb6565b60405161028d9b9a99989796959493929190613368565b3480156103ea57600080fd5b5061033d6103f93660046133d4565b610ca5565b61033d61040c366004613410565b610d35565b34801561041d57600080fd5b5061033d61042c3660046132ed565b6110cd565b34801561043d57600080fd5b5061033d61044c366004613410565b6111c8565b34801561045d57600080fd5b5061033d61046c3660046132ed565b611423565b34801561047d57600080fd5b5061028161048c366004613410565b600e60209081526000928352604080842090915290825290205460ff1681565b3480156104b857600080fd5b5061033d6104c73660046133d4565b611509565b3480156104d857600080fd5b5061033d6104e73660046134be565b611529565b3480156104f857600080fd5b5061050c610507366004613410565b6117fb565b60405190815260200161028d565b61033d6105283660046132ed565b61182c565b34801561053957600080fd5b506105926105483660046132ed565b600b6020526000908152604090208054600182015460028301546003840154600485015460058601546006909601549495939492936001600160a01b039092169290919060ff1687565b604080519788526020880196909652948601939093526001600160a01b039091166060850152608084015260a0830152151560c082015260e00161028d565b3480156105dd57600080fd5b5061050c60095481565b3480156105f357600080fd5b5061050c6106023660046132ed565b611a6c565b34801561061357600080fd5b506103056106223660046132ed565b611a8d565b34801561063357600080fd5b504761050c565b34801561064657600080fd5b5061050c61065536600461322b565b611a98565b34801561066657600080fd5b5061033d611ae0565b34801561067b57600080fd5b5061068f61068a3660046132ed565b611af4565b60405161028d91908151815260208083015190820152604080830151908201526060808301516001600160a01b0316908201526080808301519082015260a0808301519082015260c09182015115159181019190915260e00190565b3480156106f757600080fd5b5061050c60085481565b34801561070d57600080fd5b506102b6611bb0565b34801561072257600080fd5b506006546001600160a01b0316610305565b34801561074057600080fd5b5061075461074f3660046132ed565b611d2d565b60405161028d9190613567565b34801561076d57600080fd5b506102d8611ec6565b34801561078257600080fd5b506102b66107913660046132ed565b611ed5565b3480156107a257600080fd5b5061033d6107b1366004613623565b611f38565b3480156107c257600080fd5b5061033d6107d136600461365f565b611f43565b3480156107e257600080fd5b506102d86107f13660046132ed565b611f5a565b61033d6108043660046136af565b611fcf565b34801561081557600080fd5b5061050c610824366004613306565b612244565b34801561083557600080fd5b506102b66108443660046132ed565b612260565b34801561085557600080fd5b5061033d6108643660046132ed565b6122c0565b34801561087557600080fd5b5061033d612483565b34801561088a57600080fd5b506108d56108993660046132ed565b600f602052600090815260409020805460018201546002830154600384015460049094015492936001600160a01b039092169290919060ff1685565b604080519586526001600160a01b0390941660208601529284019190915260608301521515608082015260a00161028d565b34801561091357600080fd5b506102816109223660046136d4565b6124c4565b34801561093357600080fd5b5061033d610942366004613410565b6124f2565b34801561095357600080fd5b5061033d61096236600461322b565b612749565b60006001600160e01b031982166380ac58cd60e01b148061099857506001600160e01b03198216635b5e139f60e01b145b806109b357506301ffc9a760e01b6001600160e01b03198316145b92915050565b6001600160a01b0381166000908152600d6020908152604091829020805483518184028101840190945280845260609392830182828015610a1957602002820191906000526020600020905b815481526020019060010190808311610a05575b50505050509050919050565b606060008054610a3490613707565b80601f0160208091040260200160405190810160405280929190818152602001828054610a6090613707565b8015610aad5780601f10610a8257610100808354040283529160200191610aad565b820191906000526020600020905b815481529060010190602001808311610a9057829003601f168201915b5050505050905090565b6000610ac282612784565b506000828152600460205260409020546001600160a01b03166109b3565b610aeb8282336127bd565b5050565b610b2c6040518060a001604052806000815260200160006001600160a01b0316815260200160008152602001600081526020016000151581525090565b6000828152600f60209081526040808320815160a081018352815480825260018301546001600160a01b031694820194909452600282015492810192909252600381015460608301526004015460ff161515608082015291036109b35750506040805160a08101825291825260006020830181905290820181905260608201819052608082015290565b600a6020528060005260406000206000915090508060000154908060010154908060020154908060030154908060040154908060050154908060070160009054906101000a900460ff169080600801549080600901549080600a01549080600b018054610c2290613707565b80601f0160208091040260200160405190810160405280929190818152602001828054610c4e90613707565b8015610c9b5780601f10610c7057610100808354040283529160200191610c9b565b820191906000526020600020905b815481529060010190602001808311610c7e57829003601f168201915b505050505090508b565b6001600160a01b038216610cd457604051633250574960e11b8152600060048201526024015b60405180910390fd5b6000610ce18383336127ca565b9050836001600160a01b0316816001600160a01b031614610d2f576040516364283d7b60e01b81526001600160a01b0380861660048301526024820184905282166044820152606401610ccb565b50505050565b610d3d6128c3565b6000828152600a602052604090206001600782015460ff166003811115610d6657610d66613330565b14610db35760405162461bcd60e51b815260206004820152601c60248201527f4c6f7474657279206e6f7420696e2073656c6c696e67207374617465000000006044820152606401610ccb565b8060090154421115610dfd5760405162461bcd60e51b8152602060048201526013602482015272131bdd1d195c9e481cd85b195cc8195b991959606a1b6044820152606401610ccb565b8060020154816003015410610e475760405162461bcd60e51b815260206004820152601060248201526f105b1b081d1a58dad95d1cc81cdbdb1960821b6044820152606401610ccb565b80600101543414610e6a5760405162461bcd60e51b8152600401610ccb90613741565b600082118015610e7e575080600201548211155b610ec25760405162461bcd60e51b815260206004820152601560248201527424b73b30b634b2103a34b1b5b2ba10373ab6b132b960591b6044820152606401610ccb565b6000838152600e6020908152604080832085845290915290205460ff1615610f235760405162461bcd60e51b8152602060048201526014602482015273273ab6b132b91030b63932b0b23c903a30b5b2b760611b6044820152606401610ccb565b6009805460009182610f348361378e565b909155506040805160e08101825282815260208082018881528284018881523360608501908152600189810154608087019081524260a08801908152600060c089018181528b8252600b909852988920975188559451918701919091559151600286015551600380860180546001600160a01b0319166001600160a01b0390931692909217909155905160048501559051600584015590516006909201805460ff1916921515929092179091558401805492935090610ff28361378e565b9190505550816001015482600401600082825461100f91906137a7565b90915550506000848152600e602090815260408083208684528252808320805460ff19166001908117909155878452600c8352818420805480830182559085528385200185905533808552600d8452918420805491820181558452919092200182905561107c90826128ed565b336001600160a01b031681857fc3b7539e996dc1d1252af1e3c72474162b7a9c7cc7411ca8905732eaf6fff328866040516110b991815260200190565b60405180910390a45050610aeb6001600755565b6110d56128c3565b6000818152600f60205260409020600481015460ff1661112b5760405162461bcd60e51b8152602060048201526011602482015270151a58dad95d081b9bdd081b1a5cdd1959607a1b6044820152606401610ccb565b60018101546001600160a01b031633146111785760405162461bcd60e51b815260206004820152600e60248201526d2737ba103a34329039b2b63632b960911b6044820152606401610ccb565b60048101805460ff1916905561118d82612952565b604051339083907f8e25282255ab31897df2b0456bb993ac7f84d376861aefd84901d2d63a7428a290600090a3506111c56001600755565b50565b6111d06128c3565b6000828152600b602052604081205490036111fd5760405162461bcd60e51b8152600401610ccb906137ba565b3361120783611a8d565b6001600160a01b03161461122d5760405162461bcd60e51b8152600401610ccb906137e9565b6000811161127d5760405162461bcd60e51b815260206004820152601c60248201527f5072696365206d7573742062652067726561746572207468616e2030000000006044820152606401610ccb565b6000828152600f602052604090206004015460ff16156112d75760405162461bcd60e51b8152602060048201526015602482015274151a58dad95d08185b1c9958591e481b1a5cdd1959605a1b6044820152606401610ccb565b6000828152600b6020908152604080832060018101548452600a9092529091206002600782015460ff16600381111561131257611312613330565b1461132f5760405162461bcd60e51b8152600401610ccb90613813565b6040805160a081018252858152336020808301828152838501888152426060860190815260016080870181815260008d8152600f875289812098518955945188830180546001600160a01b0319166001600160a01b03909216919091179055925160028801559051600387015590516004909501805460ff19169515159590951790945560108054948501815590527f1b6847dc741a1b0cd08d278845f9d819d87b734759afb55fe2de5cb82a9ae672909201879055915185815286917f22968ec3be3687b180f3544163a034b88d57b48159d9a7e9a1b610fdb2d05f80910160405180910390a35050610aeb6001600755565b61142b612a0a565b6000818152600a602052604090206001600782015460ff16600381111561145457611454613330565b146114a15760405162461bcd60e51b815260206004820152601c60248201527f4c6f7474657279206e6f7420696e2073656c6c696e67207374617465000000006044820152606401610ccb565b80600901544211806114ba575080600201548160030154145b6114f85760405162461bcd60e51b815260206004820152600f60248201526e14d85b195cc81b9bdd08195b991959608a1b6044820152606401610ccb565b600701805460ff1916600217905550565b61152483838360405180602001604052806000815250611f43565b505050565b611531612a0a565b6000841161158d5760405162461bcd60e51b815260206004820152602360248201527f5469636b6574207072696365206d75737420626520677265617465722074686160448201526206e20360ec1b6064820152608401610ccb565b600083116115e85760405162461bcd60e51b815260206004820152602260248201527f4d6178207469636b657473206d7573742062652067726561746572207468616e604482015261020360f41b6064820152608401610ccb565b600082116116385760405162461bcd60e51b815260206004820152601f60248201527f4475726174696f6e206d7573742062652067726561746572207468616e2030006044820152606401610ccb565b60088054600091826116498361378e565b90915550905042600061165c85836137a7565b9050604051806101800160405280848152602001888152602001878152602001600081526020016000815260200160008152602001600067ffffffffffffffff8111156116ab576116ab613432565b6040519080825280602002602001820160405280156116d4578160200160208202803683370190505b50815260200160018152602080820185905260408083018590526000606080850182905260809485018a9052888252600a84529082902085518155858401516001820155918501516002830155840151600382015591830151600483015560a0830151600583015560c08301518051611753926006850192019061310a565b5060e082015160078201805460ff1916600183600381111561177757611777613330565b021790555061010082015160088201556101208201516009820155610140820151600a820155610160820151600b8201906117b29082613898565b50905050827f2316fbd20754278141276ff449d2d05b1c07042df0a4dac200a54ce88f78a4fd8888876040516117ea93929190613958565b60405180910390a250505050505050565b600c602052816000526040600020818154811061181757600080fd5b90600052602060002001600091509150505481565b6118346128c3565b6000818152600f60205260409020600481015460ff1661188a5760405162461bcd60e51b8152602060048201526011602482015270151a58dad95d081b9bdd081b1a5cdd1959607a1b6044820152606401610ccb565b806002015434146118ad5760405162461bcd60e51b8152600401610ccb90613741565b60018101546001600160a01b031633036119095760405162461bcd60e51b815260206004820152601a60248201527f43616e6e6f742062757920796f7572206f776e207469636b65740000000000006044820152606401610ccb565b6000828152600b6020908152604080832060018101548452600a9092529091206002600782015460ff16600381111561194457611944613330565b146119615760405162461bcd60e51b8152600401610ccb90613813565b60018301546001600160a01b031661197a813387612a37565b6003830180546001600160a01b031916331790556119988186612ae7565b336000908152600d602090815260408083208054600181018255908452918320909101879055600286015490516001600160a01b0384169282156108fc02929190818181858888f193505050501580156119f6573d6000803e3d6000fd5b5060048401805460ff19169055611a0c85612952565b806001600160a01b0316336001600160a01b0316867f44b4a3d0d8e806cfda189b34f2af001a470ea7120cf481411a083ff5e930623b8760020154604051611a5691815260200190565b60405180910390a4505050506111c56001600755565b60108181548110611a7c57600080fd5b600091825260209091200154905081565b60006109b382612784565b60006001600160a01b038216611ac4576040516322718ad960e21b815260006004820152602401610ccb565b506001600160a01b031660009081526003602052604090205490565b611ae8612a0a565b611af26000612bb5565b565b611b3f6040518060e0016040528060008152602001600081526020016000815260200160006001600160a01b0316815260200160008152602001600081526020016000151581525090565b506000908152600b6020908152604091829020825160e0810184528154815260018201549281019290925260028101549282019290925260038201546001600160a01b0316606082015260048201546080820152600582015460a082015260069091015460ff16151560c082015290565b60105460609060009067ffffffffffffffff811115611bd157611bd1613432565b604051908082528060200260200182016040528015611bfa578160200160208202803683370190505b5090506000805b601054811015611c8957600060108281548110611c2057611c20613980565b6000918252602080832090910154808352600f90915260409091206004015490915060ff1615611c765780848481518110611c5d57611c5d613980565b602090810291909101015282611c728161378e565b9350505b5080611c818161378e565b915050611c01565b5060008167ffffffffffffffff811115611ca557611ca5613432565b604051908082528060200260200182016040528015611cce578160200160208202803683370190505b50905060005b82811015611d2557838181518110611cee57611cee613980565b6020026020010151828281518110611d0857611d08613980565b602090810291909101015280611d1d8161378e565b915050611cd4565b509392505050565b611d35613155565b6000828152600a6020908152604091829020825161018081018452815481526001820154818401526002820154818501526003820154606082015260048201546080820152600582015460a08201526006820180548551818602810186019096528086529194929360c08601939290830182828015611dd357602002820191906000526020600020905b815481526020019060010190808311611dbf575b5050509183525050600782015460209091019060ff166003811115611dfa57611dfa613330565b6003811115611e0b57611e0b613330565b81526020016008820154815260200160098201548152602001600a8201548152602001600b82018054611e3d90613707565b80601f0160208091040260200160405190810160405280929190818152602001828054611e6990613707565b8015611eb65780601f10611e8b57610100808354040283529160200191611eb6565b820191906000526020600020905b815481529060010190602001808311611e9957829003601f168201915b5050505050815250509050919050565b606060018054610a3490613707565b6000818152600a6020908152604091829020600601805483518184028101840190945280845260609392830182828015610a195760200282019190600052602060002090815481526020019060010190808311610a055750505050509050919050565b610aeb338383612c07565b611f4e848484610ca5565b610d2f84848484612ca6565b6060611f6582612784565b506000611f7d60408051602081019091526000815290565b90506000815111611f9d5760405180602001604052806000815250611fc8565b80611fa784612dcf565b604051602001611fb8929190613996565b6040516020818303038152906040525b9392505050565b611fd76128c3565b6000838152600b602052604081205490036120045760405162461bcd60e51b8152600401610ccb906137ba565b3361200e84611a8d565b6001600160a01b0316146120345760405162461bcd60e51b8152600401610ccb906137e9565b6001600160a01b03821661207e5760405162461bcd60e51b8152602060048201526011602482015270125b9d985b1a59081c9958da5c1a595b9d607a1b6044820152606401610ccb565b336001600160a01b038316036120d65760405162461bcd60e51b815260206004820152601860248201527f43616e6e6f7420747261646520746f20796f757273656c6600000000000000006044820152606401610ccb565b8034146120f55760405162461bcd60e51b8152600401610ccb90613741565b6000838152600b6020908152604080832060018101548452600a9092529091206002600782015460ff16600381111561213057612130613330565b1461214d5760405162461bcd60e51b8152600401610ccb90613813565b33612159818688612a37565b6003830180546001600160a01b0319166001600160a01b0387161790556121808187612ae7565b6001600160a01b0385166000908152600d602090815260408220805460018101825590835291200186905583156121e9576040516001600160a01b0382169085156108fc029086906000818181858888f193505050501580156121e7573d6000803e3d6000fd5b505b846001600160a01b0316816001600160a01b0316877fd98c3ef1a94b4c443dca97554e2350d7db2fb7424ff20e8dac7e2ffb7a9b45448760405161222f91815260200190565b60405180910390a45050506115246001600755565b600d602052816000526040600020818154811061181757600080fd5b6000818152600c6020908152604091829020805483518184028101840190945280845260609392830182828015610a195760200282019190600052602060002090815481526020019060010190808311610a055750505050509050919050565b6122c86128c3565b6000818152600b602052604081205490036122f55760405162461bcd60e51b8152600401610ccb906137ba565b336122ff82611a8d565b6001600160a01b0316146123255760405162461bcd60e51b8152600401610ccb906137e9565b6000818152600b6020908152604080832060018101548452600a9092529091206003600782015460ff16600381111561236057612360613330565b146123a35760405162461bcd60e51b8152602060048201526013602482015272131bdd1d195c9e481b9bdd081cd95d1d1b1959606a1b6044820152606401610ccb565b600682015460ff166123ec5760405162461bcd60e51b81526020600482015260126024820152715469636b6574206e6f742077696e6e696e6760701b6044820152606401610ccb565b60068101546004820154600091612402916139c5565b60068401805460ff19169055604051909150339082156108fc029083906000818181858888f1935050505015801561243e573d6000803e3d6000fd5b50604051818152339085907f4aa95f981a8337cb337de335b965507da0879c3b49f799d20058e913f5ad2c269060200160405180910390a35050506111c56001600755565b61248b612a0a565b6006546040516001600160a01b03909116904780156108fc02916000818181858888f193505050501580156111c5573d6000803e3d6000fd5b6001600160a01b03918216600090815260056020908152604080832093909416825291909152205460ff1690565b6124fa612a0a565b6000828152600a602052604090206002600782015460ff16600381111561252357612523613330565b146125405760405162461bcd60e51b8152600401610ccb90613813565b600082118015612554575080600201548211155b6125995760405162461bcd60e51b815260206004820152601660248201527524b73b30b634b2103bb4b73734b73390373ab6b132b960511b6044820152606401610ccb565b6000838152600e6020908152604080832085845290915290205460ff166126025760405162461bcd60e51b815260206004820152601760248201527f57696e6e696e67206e756d626572206e6f7420736f6c640000000000000000006044820152606401610ccb565b6005810182905542600a82015560078101805460ff191660031790556000838152600c60205260408120905b81548110156127055783600b600084848154811061264e5761264e613980565b9060005260206000200154815260200190815260200160002060020154036126f3578260060182828154811061268657612686613980565b6000918252602080832090910154835460018181018655948452918320909101558354600b91908590859081106126bf576126bf613980565b9060005260206000200154815260200190815260200160002060060160006101000a81548160ff0219169083151502179055505b806126fd8161378e565b91505061262e565b50837f11246c3a7d8771e0b381cfe60a14c70dbc0de7ea21507711c099031cca74672e848460060160405161273b9291906139e7565b60405180910390a250505050565b612751612a0a565b6001600160a01b03811661277b57604051631e4fbdf760e01b815260006004820152602401610ccb565b6111c581612bb5565b6000818152600260205260408120546001600160a01b0316806109b357604051637e27328960e01b815260048101849052602401610ccb565b6115248383836001612e62565b6000828152600260205260408120546001600160a01b03908116908316156127f7576127f7818486612f68565b6001600160a01b0381161561283557612814600085600080612e62565b6001600160a01b038116600090815260036020526040902080546000190190555b6001600160a01b03851615612864576001600160a01b0385166000908152600360205260409020805460010190555b60008481526002602052604080822080546001600160a01b0319166001600160a01b0389811691821790925591518793918516917fddf252ad1be2c89b69c2b068fc378daa952ba7f163c4a11628f55a4df523b3ef91a4949350505050565b6002600754036128e657604051633ee5aeb560e01b815260040160405180910390fd5b6002600755565b6001600160a01b03821661291757604051633250574960e11b815260006004820152602401610ccb565b6000612925838360006127ca565b90506001600160a01b03811615611524576040516339e3563760e11b815260006004820152602401610ccb565b60005b601054811015610aeb57816010828154811061297357612973613980565b9060005260206000200154036129f8576010805461299390600190613a3a565b815481106129a3576129a3613980565b9060005260206000200154601082815481106129c1576129c1613980565b60009182526020909120015560108054806129de576129de613a4d565b600190038181906000526020600020016000905590555050565b80612a028161378e565b915050612955565b6006546001600160a01b03163314611af25760405163118cdaa760e01b8152336004820152602401610ccb565b6001600160a01b038216612a6157604051633250574960e11b815260006004820152602401610ccb565b6000612a6f838360006127ca565b90506001600160a01b038116612a9b57604051637e27328960e01b815260048101839052602401610ccb565b836001600160a01b0316816001600160a01b031614610d2f576040516364283d7b60e01b81526001600160a01b0380861660048301526024820184905282166044820152606401610ccb565b6001600160a01b0382166000908152600d60205260408120905b8154811015610d2f5782828281548110612b1d57612b1d613980565b906000526020600020015403612ba35781548290612b3d90600190613a3a565b81548110612b4d57612b4d613980565b9060005260206000200154828281548110612b6a57612b6a613980565b906000526020600020018190555081805480612b8857612b88613a4d565b60019003818190600052602060002001600090559055610d2f565b80612bad8161378e565b915050612b01565b600680546001600160a01b038381166001600160a01b0319831681179093556040519116919082907f8be0079c531659141344cd1fd0a4f28419497f9722a3daafe3b4186f6b6457e090600090a35050565b6001600160a01b038216612c3957604051630b61174360e31b81526001600160a01b0383166004820152602401610ccb565b6001600160a01b03838116600081815260056020908152604080832094871680845294825291829020805460ff191686151590811790915591519182527f17307eab39ab6107e8899845ad3d59bd9653f200f220920489ca2b5937696c31910160405180910390a3505050565b6001600160a01b0383163b15610d2f57604051630a85bd0160e11b81526001600160a01b0384169063150b7a0290612ce8903390889087908790600401613a63565b6020604051808303816000875af1925050508015612d23575060408051601f3d908101601f19168201909252612d2091810190613a96565b60015b612d8c573d808015612d51576040519150601f19603f3d011682016040523d82523d6000602084013e612d56565b606091505b508051600003612d8457604051633250574960e11b81526001600160a01b0385166004820152602401610ccb565b805181602001fd5b6001600160e01b03198116630a85bd0160e11b14612dc857604051633250574960e11b81526001600160a01b0385166004820152602401610ccb565b5050505050565b60606000612ddc83612fcc565b600101905060008167ffffffffffffffff811115612dfc57612dfc613432565b6040519080825280601f01601f191660200182016040528015612e26576020820181803683370190505b5090508181016020015b600019016f181899199a1a9b1b9c1cb0b131b232b360811b600a86061a8153600a8504945084612e3057509392505050565b8080612e7657506001600160a01b03821615155b15612f38576000612e8684612784565b90506001600160a01b03831615801590612eb25750826001600160a01b0316816001600160a01b031614155b8015612ec55750612ec381846124c4565b155b15612eee5760405163a9fbf51f60e01b81526001600160a01b0384166004820152602401610ccb565b8115612f365783856001600160a01b0316826001600160a01b03167f8c5be1e5ebec7d5bd14f71427d1e84f3dd0314c0f7b2291e5b200ac8c7c3b92560405160405180910390a45b505b5050600090815260046020526040902080546001600160a01b0319166001600160a01b0392909216919091179055565b612f738383836130a4565b611524576001600160a01b038316612fa157604051637e27328960e01b815260048101829052602401610ccb565b60405163177e802f60e01b81526001600160a01b038316600482015260248101829052604401610ccb565b60008072184f03e93ff9f4daa797ed6e38ed64bf6a1f0160401b831061300b5772184f03e93ff9f4daa797ed6e38ed64bf6a1f0160401b830492506040015b6d04ee2d6d415b85acef81000000008310613037576d04ee2d6d415b85acef8100000000830492506020015b662386f26fc10000831061305557662386f26fc10000830492506010015b6305f5e100831061306d576305f5e100830492506008015b612710831061308157612710830492506004015b60648310613093576064830492506002015b600a83106109b35760010192915050565b60006001600160a01b038316158015906131025750826001600160a01b0316846001600160a01b031614806130de57506130de84846124c4565b8061310257506000828152600460205260409020546001600160a01b038481169116145b949350505050565b828054828255906000526020600020908101928215613145579160200282015b8281111561314557825182559160200191906001019061312a565b506131519291506131c7565b5090565b60405180610180016040528060008152602001600081526020016000815260200160008152602001600081526020016000815260200160608152602001600060038111156131a5576131a5613330565b8152602001600081526020016000815260200160008152602001606081525090565b5b8082111561315157600081556001016131c8565b6001600160e01b0319811681146111c557600080fd5b60006020828403121561320457600080fd5b8135611fc8816131dc565b80356001600160a01b038116811461322657600080fd5b919050565b60006020828403121561323d57600080fd5b611fc88261320f565b6020808252825182820181905260009190848201906040850190845b8181101561327e57835183529284019291840191600101613262565b50909695505050505050565b60005b838110156132a557818101518382015260200161328d565b50506000910152565b600081518084526132c681602086016020860161328a565b601f01601f19169290920160200192915050565b602081526000611fc860208301846132ae565b6000602082840312156132ff57600080fd5b5035919050565b6000806040838503121561331957600080fd5b6133228361320f565b946020939093013593505050565b634e487b7160e01b600052602160045260246000fd5b6004811061336457634e487b7160e01b600052602160045260246000fd5b9052565b60006101608d83528c60208401528b60408401528a60608401528960808401528860a084015261339b60c0840189613346565b8660e08401528561010084015284610120840152806101408401526133c2818401856132ae565b9e9d5050505050505050505050505050565b6000806000606084860312156133e957600080fd5b6133f28461320f565b92506134006020850161320f565b9150604084013590509250925092565b6000806040838503121561342357600080fd5b50508035926020909101359150565b634e487b7160e01b600052604160045260246000fd5b600067ffffffffffffffff8084111561346357613463613432565b604051601f8501601f19908116603f0116810190828211818310171561348b5761348b613432565b816040528093508581528686860111156134a457600080fd5b858560208301376000602087830101525050509392505050565b600080600080608085870312156134d457600080fd5b843593506020850135925060408501359150606085013567ffffffffffffffff81111561350057600080fd5b8501601f8101871361351157600080fd5b61352087823560208401613448565b91505092959194509250565b600081518084526020808501945080840160005b8381101561355c57815187529582019590820190600101613540565b509495945050505050565b6020815281516020820152602082015160408201526040820151606082015260608201516080820152608082015160a082015260a082015160c0820152600060c08301516101808060e08501526135c26101a085018361352c565b915060e08501516101006135d881870183613346565b860151610120868101919091528601516101408087019190915286015161016080870191909152860151858403601f190183870152905061361983826132ae565b9695505050505050565b6000806040838503121561363657600080fd5b61363f8361320f565b91506020830135801515811461365457600080fd5b809150509250929050565b6000806000806080858703121561367557600080fd5b61367e8561320f565b935061368c6020860161320f565b925060408501359150606085013567ffffffffffffffff81111561350057600080fd5b6000806000606084860312156136c457600080fd5b833592506134006020850161320f565b600080604083850312156136e757600080fd5b6136f08361320f565b91506136fe6020840161320f565b90509250929050565b600181811c9082168061371b57607f821691505b60208210810361373b57634e487b7160e01b600052602260045260246000fd5b50919050565b60208082526018908201527f496e636f7272656374207061796d656e7420616d6f756e740000000000000000604082015260600190565b634e487b7160e01b600052601160045260246000fd5b6000600182016137a0576137a0613778565b5060010190565b808201808211156109b3576109b3613778565b602080825260159082015274151a58dad95d08191bd95cc81b9bdd08195e1a5cdd605a1b604082015260600190565b60208082526010908201526f2737ba103a34b1b5b2ba1037bbb732b960811b604082015260600190565b6020808252601c908201527f4c6f7474657279206e6f7420696e2074726164696e6720737461746500000000604082015260600190565b601f82111561152457600081815260208120601f850160051c810160208610156138715750805b601f850160051c820191505b818110156138905782815560010161387d565b505050505050565b815167ffffffffffffffff8111156138b2576138b2613432565b6138c6816138c08454613707565b8461384a565b602080601f8311600181146138fb57600084156138e35750858301515b600019600386901b1c1916600185901b178555613890565b600085815260208120601f198616915b8281101561392a5788860151825594840194600190910190840161390b565b50858210156139485787850151600019600388901b60f8161c191681555b5050505050600190811b01905550565b83815282602082015260606040820152600061397760608301846132ae565b95945050505050565b634e487b7160e01b600052603260045260246000fd5b600083516139a881846020880161328a565b8351908301906139bc81836020880161328a565b01949350505050565b6000826139e257634e487b7160e01b600052601260045260246000fd5b500490565b60006040820184835260206040818501528185548084526060860191508660005282600020935060005b81811015613a2d57845483526001948501949284019201613a11565b5090979650505050505050565b818103818111156109b3576109b3613778565b634e487b7160e01b600052603160045260246000fd5b6001600160a01b0385811682528416602082015260408101839052608060608201819052600090613619908301846132ae565b600060208284031215613aa857600080fd5b8151611fc8816131dc56fea264697066735822122082aa5f488ecddda87171e06ed4bf6baba9b4b7e1e699e9610a4baa04539ad50b64736f6c63430008140033",
  "linkReferences": {},
  "deployedLinkReferences": {}
}